{
  "_format": "hh-sol-artifact-1",
  "contractName": "RealEstate",
  "sourceName": "contracts/RealEstate.sol",
  "abi": [
    {
      "inputs": [],
      "stateMutability": "nonpayable",
      "type": "constructor"
    },
    {
      "anonymous": false,
      "inputs": [
        {
          "indexed": true,
          "internalType": "address",
          "name": "owner",
          "type": "address"
        },
        {
          "indexed": true,
          "internalType": "address",
          "name": "approved",
          "type": "address"
        },
        {
          "indexed": true,
          "internalType": "uint256",
          "name": "tokenId",
          "type": "uint256"
        }
      ],
      "name": "Approval",
      "type": "event"
    },
    {
      "anonymous": false,
      "inputs": [
        {
          "indexed": true,
          "internalType": "address",
          "name": "owner",
          "type": "address"
        },
        {
          "indexed": true,
          "internalType": "address",
          "name": "operator",
          "type": "address"
        },
        {
          "indexed": false,
          "internalType": "bool",
          "name": "approved",
          "type": "bool"
        }
      ],
      "name": "ApprovalForAll",
      "type": "event"
    },
    {
      "anonymous": false,
      "inputs": [
        {
          "indexed": true,
          "internalType": "address",
          "name": "from",
          "type": "address"
        },
        {
          "indexed": true,
          "internalType": "address",
          "name": "to",
          "type": "address"
        },
        {
          "indexed": true,
          "internalType": "uint256",
          "name": "tokenId",
          "type": "uint256"
        }
      ],
      "name": "Transfer",
      "type": "event"
    },
    {
      "inputs": [
        {
          "internalType": "address",
          "name": "to",
          "type": "address"
        },
        {
          "internalType": "uint256",
          "name": "tokenId",
          "type": "uint256"
        }
      ],
      "name": "approve",
      "outputs": [],
      "stateMutability": "nonpayable",
      "type": "function"
    },
    {
      "inputs": [
        {
          "internalType": "address",
          "name": "owner",
          "type": "address"
        }
      ],
      "name": "balanceOf",
      "outputs": [
        {
          "internalType": "uint256",
          "name": "",
          "type": "uint256"
        }
      ],
      "stateMutability": "view",
      "type": "function"
    },
    {
      "inputs": [
        {
          "internalType": "uint256",
          "name": "tokenId",
          "type": "uint256"
        }
      ],
      "name": "getApproved",
      "outputs": [
        {
          "internalType": "address",
          "name": "",
          "type": "address"
        }
      ],
      "stateMutability": "view",
      "type": "function"
    },
    {
      "inputs": [
        {
          "internalType": "address",
          "name": "owner",
          "type": "address"
        },
        {
          "internalType": "address",
          "name": "operator",
          "type": "address"
        }
      ],
      "name": "isApprovedForAll",
      "outputs": [
        {
          "internalType": "bool",
          "name": "",
          "type": "bool"
        }
      ],
      "stateMutability": "view",
      "type": "function"
    },
    {
      "inputs": [
        {
          "internalType": "string",
          "name": "tokenURI",
          "type": "string"
        }
      ],
      "name": "mint",
      "outputs": [
        {
          "internalType": "uint256",
          "name": "",
          "type": "uint256"
        }
      ],
      "stateMutability": "nonpayable",
      "type": "function"
    },
    {
      "inputs": [],
      "name": "name",
      "outputs": [
        {
          "internalType": "string",
          "name": "",
          "type": "string"
        }
      ],
      "stateMutability": "view",
      "type": "function"
    },
    {
      "inputs": [
        {
          "internalType": "uint256",
          "name": "tokenId",
          "type": "uint256"
        }
      ],
      "name": "ownerOf",
      "outputs": [
        {
          "internalType": "address",
          "name": "",
          "type": "address"
        }
      ],
      "stateMutability": "view",
      "type": "function"
    },
    {
      "inputs": [
        {
          "internalType": "address",
          "name": "from",
          "type": "address"
        },
        {
          "internalType": "address",
          "name": "to",
          "type": "address"
        },
        {
          "internalType": "uint256",
          "name": "tokenId",
          "type": "uint256"
        }
      ],
      "name": "safeTransferFrom",
      "outputs": [],
      "stateMutability": "nonpayable",
      "type": "function"
    },
    {
      "inputs": [
        {
          "internalType": "address",
          "name": "from",
          "type": "address"
        },
        {
          "internalType": "address",
          "name": "to",
          "type": "address"
        },
        {
          "internalType": "uint256",
          "name": "tokenId",
          "type": "uint256"
        },
        {
          "internalType": "bytes",
          "name": "data",
          "type": "bytes"
        }
      ],
      "name": "safeTransferFrom",
      "outputs": [],
      "stateMutability": "nonpayable",
      "type": "function"
    },
    {
      "inputs": [
        {
          "internalType": "address",
          "name": "operator",
          "type": "address"
        },
        {
          "internalType": "bool",
          "name": "approved",
          "type": "bool"
        }
      ],
      "name": "setApprovalForAll",
      "outputs": [],
      "stateMutability": "nonpayable",
      "type": "function"
    },
    {
      "inputs": [
        {
          "internalType": "bytes4",
          "name": "interfaceId",
          "type": "bytes4"
        }
      ],
      "name": "supportsInterface",
      "outputs": [
        {
          "internalType": "bool",
          "name": "",
          "type": "bool"
        }
      ],
      "stateMutability": "view",
      "type": "function"
    },
    {
      "inputs": [],
      "name": "symbol",
      "outputs": [
        {
          "internalType": "string",
          "name": "",
          "type": "string"
        }
      ],
      "stateMutability": "view",
      "type": "function"
    },
    {
      "inputs": [
        {
          "internalType": "uint256",
          "name": "tokenId",
          "type": "uint256"
        }
      ],
      "name": "tokenURI",
      "outputs": [
        {
          "internalType": "string",
          "name": "",
          "type": "string"
        }
      ],
      "stateMutability": "view",
      "type": "function"
    },
    {
      "inputs": [],
      "name": "totalSupply",
      "outputs": [
        {
          "internalType": "uint256",
          "name": "",
          "type": "uint256"
        }
      ],
      "stateMutability": "view",
      "type": "function"
    },
    {
      "inputs": [
        {
          "internalType": "address",
          "name": "from",
          "type": "address"
        },
        {
          "internalType": "address",
          "name": "to",
          "type": "address"
        },
        {
          "internalType": "uint256",
          "name": "tokenId",
          "type": "uint256"
        }
      ],
      "name": "transferFrom",
      "outputs": [],
      "stateMutability": "nonpayable",
      "type": "function"
    }
  ],
  "bytecode": "0x60806040523480156200001157600080fd5b506040518060400160405280600b81526020017f5265616c204573746174650000000000000000000000000000000000000000008152506040518060400160405280600481526020017f5245414c0000000000000000000000000000000000000000000000000000000081525081600090816200008f919062000324565b508060019081620000a1919062000324565b5050506200040b565b600081519050919050565b7f4e487b7100000000000000000000000000000000000000000000000000000000600052604160045260246000fd5b7f4e487b7100000000000000000000000000000000000000000000000000000000600052602260045260246000fd5b600060028204905060018216806200012c57607f821691505b602082108103620001425762000141620000e4565b5b50919050565b60008190508160005260206000209050919050565b60006020601f8301049050919050565b600082821b905092915050565b600060088302620001ac7fffffffffffffffffffffffffffffffffffffffffffffffffffffffffffffffff826200016d565b620001b886836200016d565b95508019841693508086168417925050509392505050565b6000819050919050565b6000819050919050565b600062000205620001ff620001f984620001d0565b620001da565b620001d0565b9050919050565b6000819050919050565b6200022183620001e4565b6200023962000230826200020c565b8484546200017a565b825550505050565b600090565b6200025062000241565b6200025d81848462000216565b505050565b5b8181101562000285576200027960008262000246565b60018101905062000263565b5050565b601f821115620002d4576200029e8162000148565b620002a9846200015d565b81016020851015620002b9578190505b620002d1620002c8856200015d565b83018262000262565b50505b505050565b600082821c905092915050565b6000620002f960001984600802620002d9565b1980831691505092915050565b6000620003148383620002e6565b9150826002028217905092915050565b6200032f82620000aa565b67ffffffffffffffff8111156200034b576200034a620000b5565b5b62000357825462000113565b6200036482828562000289565b600060209050601f8311600181146200039c576000841562000387578287015190505b62000393858262000306565b86555062000403565b601f198416620003ac8662000148565b60005b82811015620003d657848901518255600182019150602085019450602081019050620003af565b86831015620003f65784890151620003f2601f891682620002e6565b8355505b6001600288020188555050505b505050505050565b612a5d806200041b6000396000f3fe608060405234801561001057600080fd5b50600436106100f55760003560e01c80636352211e11610097578063b88d4fde11610066578063b88d4fde14610284578063c87b56dd146102a0578063d85d3d27146102d0578063e985e9c514610300576100f5565b80636352211e146101ea57806370a082311461021a57806395d89b411461024a578063a22cb46514610268576100f5565b8063095ea7b3116100d3578063095ea7b31461017857806318160ddd1461019457806323b872dd146101b257806342842e0e146101ce576100f5565b806301ffc9a7146100fa57806306fdde031461012a578063081812fc14610148575b600080fd5b610114600480360381019061010f91906117ef565b610330565b6040516101219190611837565b60405180910390f35b610132610412565b60405161013f91906118e2565b60405180910390f35b610162600480360381019061015d919061193a565b6104a4565b60405161016f91906119a8565b60405180910390f35b610192600480360381019061018d91906119ef565b6104ea565b005b61019c610601565b6040516101a99190611a3e565b60405180910390f35b6101cc60048036038101906101c79190611a59565b610612565b005b6101e860048036038101906101e39190611a59565b610672565b005b61020460048036038101906101ff919061193a565b610692565b60405161021191906119a8565b60405180910390f35b610234600480360381019061022f9190611aac565b610743565b6040516102419190611a3e565b60405180910390f35b6102526107fa565b60405161025f91906118e2565b60405180910390f35b610282600480360381019061027d9190611b05565b61088c565b005b61029e60048036038101906102999190611c7a565b6108a2565b005b6102ba60048036038101906102b5919061193a565b610904565b6040516102c791906118e2565b60405180910390f35b6102ea60048036038101906102e59190611d9e565b610a16565b6040516102f79190611a3e565b60405180910390f35b61031a60048036038101906103159190611de7565b610a4d565b6040516103279190611837565b60405180910390f35b60007f80ac58cd000000000000000000000000000000000000000000000000000000007bffffffffffffffffffffffffffffffffffffffffffffffffffffffff1916827bffffffffffffffffffffffffffffffffffffffffffffffffffffffff191614806103fb57507f5b5e139f000000000000000000000000000000000000000000000000000000007bffffffffffffffffffffffffffffffffffffffffffffffffffffffff1916827bffffffffffffffffffffffffffffffffffffffffffffffffffffffff1916145b8061040b575061040a82610ae1565b5b9050919050565b60606000805461042190611e56565b80601f016020809104026020016040519081016040528092919081815260200182805461044d90611e56565b801561049a5780601f1061046f5761010080835404028352916020019161049a565b820191906000526020600020905b81548152906001019060200180831161047d57829003601f168201915b5050505050905090565b60006104af82610b4b565b6004600083815260200190815260200160002060009054906101000a900473ffffffffffffffffffffffffffffffffffffffff169050919050565b60006104f582610692565b90508073ffffffffffffffffffffffffffffffffffffffff168373ffffffffffffffffffffffffffffffffffffffff1603610565576040517f08c379a000000000000000000000000000000000000000000000000000000000815260040161055c90611ef9565b60405180910390fd5b8073ffffffffffffffffffffffffffffffffffffffff16610584610b96565b73ffffffffffffffffffffffffffffffffffffffff1614806105b357506105b2816105ad610b96565b610a4d565b5b6105f2576040517f08c379a00000000000000000000000000000000000000000000000000000000081526004016105e990611f8b565b60405180910390fd5b6105fc8383610b9e565b505050565b600061060d6007610c57565b905090565b61062361061d610b96565b82610c65565b610662576040517f08c379a00000000000000000000000000000000000000000000000000000000081526004016106599061201d565b60405180910390fd5b61066d838383610cfa565b505050565b61068d838383604051806020016040528060008152506108a2565b505050565b6000806002600084815260200190815260200160002060009054906101000a900473ffffffffffffffffffffffffffffffffffffffff169050600073ffffffffffffffffffffffffffffffffffffffff168173ffffffffffffffffffffffffffffffffffffffff160361073a576040517f08c379a000000000000000000000000000000000000000000000000000000000815260040161073190612089565b60405180910390fd5b80915050919050565b60008073ffffffffffffffffffffffffffffffffffffffff168273ffffffffffffffffffffffffffffffffffffffff16036107b3576040517f08c379a00000000000000000000000000000000000000000000000000000000081526004016107aa9061211b565b60405180910390fd5b600360008373ffffffffffffffffffffffffffffffffffffffff1673ffffffffffffffffffffffffffffffffffffffff168152602001908152602001600020549050919050565b60606001805461080990611e56565b80601f016020809104026020016040519081016040528092919081815260200182805461083590611e56565b80156108825780601f1061085757610100808354040283529160200191610882565b820191906000526020600020905b81548152906001019060200180831161086557829003601f168201915b5050505050905090565b61089e610897610b96565b8383610f60565b5050565b6108b36108ad610b96565b83610c65565b6108f2576040517f08c379a00000000000000000000000000000000000000000000000000000000081526004016108e99061201d565b60405180910390fd5b6108fe848484846110cc565b50505050565b606061090f82610b4b565b600060066000848152602001908152602001600020805461092f90611e56565b80601f016020809104026020016040519081016040528092919081815260200182805461095b90611e56565b80156109a85780601f1061097d576101008083540402835291602001916109a8565b820191906000526020600020905b81548152906001019060200180831161098b57829003601f168201915b5050505050905060006109b9611128565b905060008151036109ce578192505050610a11565b600082511115610a035780826040516020016109eb929190612177565b60405160208183030381529060405292505050610a11565b610a0c8461113f565b925050505b919050565b6000610a2260076111a7565b6000610a2e6007610c57565b9050610a3a33826111bd565b610a448184611396565b80915050919050565b6000600560008473ffffffffffffffffffffffffffffffffffffffff1673ffffffffffffffffffffffffffffffffffffffff16815260200190815260200160002060008373ffffffffffffffffffffffffffffffffffffffff1673ffffffffffffffffffffffffffffffffffffffff16815260200190815260200160002060009054906101000a900460ff16905092915050565b60007f01ffc9a7000000000000000000000000000000000000000000000000000000007bffffffffffffffffffffffffffffffffffffffffffffffffffffffff1916827bffffffffffffffffffffffffffffffffffffffffffffffffffffffff1916149050919050565b610b5481611403565b610b93576040517f08c379a0000000000000000000000000000000000000000000000000000000008152600401610b8a90612089565b60405180910390fd5b50565b600033905090565b816004600083815260200190815260200160002060006101000a81548173ffffffffffffffffffffffffffffffffffffffff021916908373ffffffffffffffffffffffffffffffffffffffff160217905550808273ffffffffffffffffffffffffffffffffffffffff16610c1183610692565b73ffffffffffffffffffffffffffffffffffffffff167f8c5be1e5ebec7d5bd14f71427d1e84f3dd0314c0f7b2291e5b200ac8c7c3b92560405160405180910390a45050565b600081600001549050919050565b600080610c7183610692565b90508073ffffffffffffffffffffffffffffffffffffffff168473ffffffffffffffffffffffffffffffffffffffff161480610cb35750610cb28185610a4d565b5b80610cf157508373ffffffffffffffffffffffffffffffffffffffff16610cd9846104a4565b73ffffffffffffffffffffffffffffffffffffffff16145b91505092915050565b8273ffffffffffffffffffffffffffffffffffffffff16610d1a82610692565b73ffffffffffffffffffffffffffffffffffffffff1614610d70576040517f08c379a0000000000000000000000000000000000000000000000000000000008152600401610d679061220d565b60405180910390fd5b600073ffffffffffffffffffffffffffffffffffffffff168273ffffffffffffffffffffffffffffffffffffffff1603610ddf576040517f08c379a0000000000000000000000000000000000000000000000000000000008152600401610dd69061229f565b60405180910390fd5b610dea83838361146f565b610df5600082610b9e565b6001600360008573ffffffffffffffffffffffffffffffffffffffff1673ffffffffffffffffffffffffffffffffffffffff1681526020019081526020016000206000828254610e4591906122ee565b925050819055506001600360008473ffffffffffffffffffffffffffffffffffffffff1673ffffffffffffffffffffffffffffffffffffffff1681526020019081526020016000206000828254610e9c9190612322565b92505081905550816002600083815260200190815260200160002060006101000a81548173ffffffffffffffffffffffffffffffffffffffff021916908373ffffffffffffffffffffffffffffffffffffffff160217905550808273ffffffffffffffffffffffffffffffffffffffff168473ffffffffffffffffffffffffffffffffffffffff167fddf252ad1be2c89b69c2b068fc378daa952ba7f163c4a11628f55a4df523b3ef60405160405180910390a4610f5b838383611474565b505050565b8173ffffffffffffffffffffffffffffffffffffffff168373ffffffffffffffffffffffffffffffffffffffff1603610fce576040517f08c379a0000000000000000000000000000000000000000000000000000000008152600401610fc5906123a2565b60405180910390fd5b80600560008573ffffffffffffffffffffffffffffffffffffffff1673ffffffffffffffffffffffffffffffffffffffff16815260200190815260200160002060008473ffffffffffffffffffffffffffffffffffffffff1673ffffffffffffffffffffffffffffffffffffffff16815260200190815260200160002060006101000a81548160ff0219169083151502179055508173ffffffffffffffffffffffffffffffffffffffff168373ffffffffffffffffffffffffffffffffffffffff167f17307eab39ab6107e8899845ad3d59bd9653f200f220920489ca2b5937696c31836040516110bf9190611837565b60405180910390a3505050565b6110d7848484610cfa565b6110e384848484611479565b611122576040517f08c379a000000000000000000000000000000000000000000000000000000000815260040161111990612434565b60405180910390fd5b50505050565b606060405180602001604052806000815250905090565b606061114a82610b4b565b6000611154611128565b90506000815111611174576040518060200160405280600081525061119f565b8061117e84611600565b60405160200161118f929190612177565b6040516020818303038152906040525b915050919050565b6001816000016000828254019250508190555050565b600073ffffffffffffffffffffffffffffffffffffffff168273ffffffffffffffffffffffffffffffffffffffff160361122c576040517f08c379a0000000000000000000000000000000000000000000000000000000008152600401611223906124a0565b60405180910390fd5b61123581611403565b15611275576040517f08c379a000000000000000000000000000000000000000000000000000000000815260040161126c9061250c565b60405180910390fd5b6112816000838361146f565b6001600360008473ffffffffffffffffffffffffffffffffffffffff1673ffffffffffffffffffffffffffffffffffffffff16815260200190815260200160002060008282546112d19190612322565b92505081905550816002600083815260200190815260200160002060006101000a81548173ffffffffffffffffffffffffffffffffffffffff021916908373ffffffffffffffffffffffffffffffffffffffff160217905550808273ffffffffffffffffffffffffffffffffffffffff16600073ffffffffffffffffffffffffffffffffffffffff167fddf252ad1be2c89b69c2b068fc378daa952ba7f163c4a11628f55a4df523b3ef60405160405180910390a461139260008383611474565b5050565b61139f82611403565b6113de576040517f08c379a00000000000000000000000000000000000000000000000000000000081526004016113d59061259e565b60405180910390fd5b806006600084815260200190815260200160002090816113fe919061276a565b505050565b60008073ffffffffffffffffffffffffffffffffffffffff166002600084815260200190815260200160002060009054906101000a900473ffffffffffffffffffffffffffffffffffffffff1673ffffffffffffffffffffffffffffffffffffffff1614159050919050565b505050565b505050565b600061149a8473ffffffffffffffffffffffffffffffffffffffff16611760565b156115f3578373ffffffffffffffffffffffffffffffffffffffff1663150b7a026114c3610b96565b8786866040518563ffffffff1660e01b81526004016114e59493929190612891565b6020604051808303816000875af192505050801561152157506040513d601f19601f8201168201806040525081019061151e91906128f2565b60015b6115a3573d8060008114611551576040519150601f19603f3d011682016040523d82523d6000602084013e611556565b606091505b50600081510361159b576040517f08c379a000000000000000000000000000000000000000000000000000000000815260040161159290612434565b60405180910390fd5b805181602001fd5b63150b7a0260e01b7bffffffffffffffffffffffffffffffffffffffffffffffffffffffff1916817bffffffffffffffffffffffffffffffffffffffffffffffffffffffff1916149150506115f8565b600190505b949350505050565b606060008203611647576040518060400160405280600181526020017f3000000000000000000000000000000000000000000000000000000000000000815250905061175b565b600082905060005b600082146116795780806116629061291f565b915050600a826116729190612996565b915061164f565b60008167ffffffffffffffff81111561169557611694611b4f565b5b6040519080825280601f01601f1916602001820160405280156116c75781602001600182028036833780820191505090505b5090505b60008514611754576001826116e091906122ee565b9150600a856116ef91906129c7565b60306116fb9190612322565b60f81b818381518110611711576117106129f8565b5b60200101907effffffffffffffffffffffffffffffffffffffffffffffffffffffffffffff1916908160001a905350600a8561174d9190612996565b94506116cb565b8093505050505b919050565b6000808273ffffffffffffffffffffffffffffffffffffffff163b119050919050565b6000604051905090565b600080fd5b600080fd5b60007fffffffff0000000000000000000000000000000000000000000000000000000082169050919050565b6117cc81611797565b81146117d757600080fd5b50565b6000813590506117e9816117c3565b92915050565b6000602082840312156118055761180461178d565b5b6000611813848285016117da565b91505092915050565b60008115159050919050565b6118318161181c565b82525050565b600060208201905061184c6000830184611828565b92915050565b600081519050919050565b600082825260208201905092915050565b60005b8381101561188c578082015181840152602081019050611871565b60008484015250505050565b6000601f19601f8301169050919050565b60006118b482611852565b6118be818561185d565b93506118ce81856020860161186e565b6118d781611898565b840191505092915050565b600060208201905081810360008301526118fc81846118a9565b905092915050565b6000819050919050565b61191781611904565b811461192257600080fd5b50565b6000813590506119348161190e565b92915050565b6000602082840312156119505761194f61178d565b5b600061195e84828501611925565b91505092915050565b600073ffffffffffffffffffffffffffffffffffffffff82169050919050565b600061199282611967565b9050919050565b6119a281611987565b82525050565b60006020820190506119bd6000830184611999565b92915050565b6119cc81611987565b81146119d757600080fd5b50565b6000813590506119e9816119c3565b92915050565b60008060408385031215611a0657611a0561178d565b5b6000611a14858286016119da565b9250506020611a2585828601611925565b9150509250929050565b611a3881611904565b82525050565b6000602082019050611a536000830184611a2f565b92915050565b600080600060608486031215611a7257611a7161178d565b5b6000611a80868287016119da565b9350506020611a91868287016119da565b9250506040611aa286828701611925565b9150509250925092565b600060208284031215611ac257611ac161178d565b5b6000611ad0848285016119da565b91505092915050565b611ae28161181c565b8114611aed57600080fd5b50565b600081359050611aff81611ad9565b92915050565b60008060408385031215611b1c57611b1b61178d565b5b6000611b2a858286016119da565b9250506020611b3b85828601611af0565b9150509250929050565b600080fd5b600080fd5b7f4e487b7100000000000000000000000000000000000000000000000000000000600052604160045260246000fd5b611b8782611898565b810181811067ffffffffffffffff82111715611ba657611ba5611b4f565b5b80604052505050565b6000611bb9611783565b9050611bc58282611b7e565b919050565b600067ffffffffffffffff821115611be557611be4611b4f565b5b611bee82611898565b9050602081019050919050565b82818337600083830152505050565b6000611c1d611c1884611bca565b611baf565b905082815260208101848484011115611c3957611c38611b4a565b5b611c44848285611bfb565b509392505050565b600082601f830112611c6157611c60611b45565b5b8135611c71848260208601611c0a565b91505092915050565b60008060008060808587031215611c9457611c9361178d565b5b6000611ca2878288016119da565b9450506020611cb3878288016119da565b9350506040611cc487828801611925565b925050606085013567ffffffffffffffff811115611ce557611ce4611792565b5b611cf187828801611c4c565b91505092959194509250565b600067ffffffffffffffff821115611d1857611d17611b4f565b5b611d2182611898565b9050602081019050919050565b6000611d41611d3c84611cfd565b611baf565b905082815260208101848484011115611d5d57611d5c611b4a565b5b611d68848285611bfb565b509392505050565b600082601f830112611d8557611d84611b45565b5b8135611d95848260208601611d2e565b91505092915050565b600060208284031215611db457611db361178d565b5b600082013567ffffffffffffffff811115611dd257611dd1611792565b5b611dde84828501611d70565b91505092915050565b60008060408385031215611dfe57611dfd61178d565b5b6000611e0c858286016119da565b9250506020611e1d858286016119da565b9150509250929050565b7f4e487b7100000000000000000000000000000000000000000000000000000000600052602260045260246000fd5b60006002820490506001821680611e6e57607f821691505b602082108103611e8157611e80611e27565b5b50919050565b7f4552433732313a20617070726f76616c20746f2063757272656e74206f776e6560008201527f7200000000000000000000000000000000000000000000000000000000000000602082015250565b6000611ee360218361185d565b9150611eee82611e87565b604082019050919050565b60006020820190508181036000830152611f1281611ed6565b9050919050565b7f4552433732313a20617070726f76652063616c6c6572206973206e6f7420746f60008201527f6b656e206f776e6572206e6f7220617070726f76656420666f7220616c6c0000602082015250565b6000611f75603e8361185d565b9150611f8082611f19565b604082019050919050565b60006020820190508181036000830152611fa481611f68565b9050919050565b7f4552433732313a2063616c6c6572206973206e6f7420746f6b656e206f776e6560008201527f72206e6f7220617070726f766564000000000000000000000000000000000000602082015250565b6000612007602e8361185d565b915061201282611fab565b604082019050919050565b6000602082019050818103600083015261203681611ffa565b9050919050565b7f4552433732313a20696e76616c696420746f6b656e2049440000000000000000600082015250565b600061207360188361185d565b915061207e8261203d565b602082019050919050565b600060208201905081810360008301526120a281612066565b9050919050565b7f4552433732313a2061646472657373207a65726f206973206e6f74206120766160008201527f6c6964206f776e65720000000000000000000000000000000000000000000000602082015250565b600061210560298361185d565b9150612110826120a9565b604082019050919050565b60006020820190508181036000830152612134816120f8565b9050919050565b600081905092915050565b600061215182611852565b61215b818561213b565b935061216b81856020860161186e565b80840191505092915050565b60006121838285612146565b915061218f8284612146565b91508190509392505050565b7f4552433732313a207472616e736665722066726f6d20696e636f72726563742060008201527f6f776e6572000000000000000000000000000000000000000000000000000000602082015250565b60006121f760258361185d565b91506122028261219b565b604082019050919050565b60006020820190508181036000830152612226816121ea565b9050919050565b7f4552433732313a207472616e7366657220746f20746865207a65726f2061646460008201527f7265737300000000000000000000000000000000000000000000000000000000602082015250565b600061228960248361185d565b91506122948261222d565b604082019050919050565b600060208201905081810360008301526122b88161227c565b9050919050565b7f4e487b7100000000000000000000000000000000000000000000000000000000600052601160045260246000fd5b60006122f982611904565b915061230483611904565b925082820390508181111561231c5761231b6122bf565b5b92915050565b600061232d82611904565b915061233883611904565b92508282019050808211156123505761234f6122bf565b5b92915050565b7f4552433732313a20617070726f766520746f2063616c6c657200000000000000600082015250565b600061238c60198361185d565b915061239782612356565b602082019050919050565b600060208201905081810360008301526123bb8161237f565b9050919050565b7f4552433732313a207472616e7366657220746f206e6f6e20455243373231526560008201527f63656976657220696d706c656d656e7465720000000000000000000000000000602082015250565b600061241e60328361185d565b9150612429826123c2565b604082019050919050565b6000602082019050818103600083015261244d81612411565b9050919050565b7f4552433732313a206d696e7420746f20746865207a65726f2061646472657373600082015250565b600061248a60208361185d565b915061249582612454565b602082019050919050565b600060208201905081810360008301526124b98161247d565b9050919050565b7f4552433732313a20746f6b656e20616c7265616479206d696e74656400000000600082015250565b60006124f6601c8361185d565b9150612501826124c0565b602082019050919050565b60006020820190508181036000830152612525816124e9565b9050919050565b7f45524337323155524953746f726167653a2055524920736574206f66206e6f6e60008201527f6578697374656e7420746f6b656e000000000000000000000000000000000000602082015250565b6000612588602e8361185d565b91506125938261252c565b604082019050919050565b600060208201905081810360008301526125b78161257b565b9050919050565b60008190508160005260206000209050919050565b60006020601f8301049050919050565b600082821b905092915050565b6000600883026126207fffffffffffffffffffffffffffffffffffffffffffffffffffffffffffffffff826125e3565b61262a86836125e3565b95508019841693508086168417925050509392505050565b6000819050919050565b600061266761266261265d84611904565b612642565b611904565b9050919050565b6000819050919050565b6126818361264c565b61269561268d8261266e565b8484546125f0565b825550505050565b600090565b6126aa61269d565b6126b5818484612678565b505050565b5b818110156126d9576126ce6000826126a2565b6001810190506126bb565b5050565b601f82111561271e576126ef816125be565b6126f8846125d3565b81016020851015612707578190505b61271b612713856125d3565b8301826126ba565b50505b505050565b600082821c905092915050565b600061274160001984600802612723565b1980831691505092915050565b600061275a8383612730565b9150826002028217905092915050565b61277382611852565b67ffffffffffffffff81111561278c5761278b611b4f565b5b6127968254611e56565b6127a18282856126dd565b600060209050601f8311600181146127d457600084156127c2578287015190505b6127cc858261274e565b865550612834565b601f1984166127e2866125be565b60005b8281101561280a578489015182556001820191506020850194506020810190506127e5565b868310156128275784890151612823601f891682612730565b8355505b6001600288020188555050505b505050505050565b600081519050919050565b600082825260208201905092915050565b60006128638261283c565b61286d8185612847565b935061287d81856020860161186e565b61288681611898565b840191505092915050565b60006080820190506128a66000830187611999565b6128b36020830186611999565b6128c06040830185611a2f565b81810360608301526128d28184612858565b905095945050505050565b6000815190506128ec816117c3565b92915050565b6000602082840312156129085761290761178d565b5b6000612916848285016128dd565b91505092915050565b600061292a82611904565b91507fffffffffffffffffffffffffffffffffffffffffffffffffffffffffffffffff820361295c5761295b6122bf565b5b600182019050919050565b7f4e487b7100000000000000000000000000000000000000000000000000000000600052601260045260246000fd5b60006129a182611904565b91506129ac83611904565b9250826129bc576129bb612967565b5b828204905092915050565b60006129d282611904565b91506129dd83611904565b9250826129ed576129ec612967565b5b828206905092915050565b7f4e487b7100000000000000000000000000000000000000000000000000000000600052603260045260246000fdfea2646970667358221220fd0e38b86198c14b4a4d5cb1fd2ff68bf7d4ab6951a438da63244e3f5e640fb164736f6c63430008110033",
  "linkReferences": {},
  "deployedLinkReferences": {}
}